:400000000010002011000000B5030000B503000008B500F081FA00F0CFF90000F7B572B680220021D200554800F0EDFF802200215348D20000F0E7FF0023191C514C1859E1
:400040001034C2B20192071CFF2297434A00A4180022019ED5B2AE4209D05500665D6519B446BC446D78664635700132F1E7C0B204330918102BE1D1434BC02292041A60F8
:40008000424B99221A60424A00231360414A80211160414AC9031160404A40211160404AC021490311603F4A312113603E4B02221A603E4B802019603D4B3E491A60992317
:4000C0001B040B603C49000608603C493C200B603B4B8021890519603A493B4B19603B4B19780A431A703A4A117881431420014311701A7816210A431A70364A8023116893
:40010000DB020B431360344B141C1878334BC0B21978334BC9B21A78172A05D9314A58789978033B9342F6D12F4B192218602F4B052019602E4B1A6000F05EFD2D4B052061
:400140001A782D4BD2B21A6000F09EFE22682B4B134023602A4A2B4B1A602B4B10221A602A4B20221A602A4B802212061A60294A294B1A60294A2A4B1A60F7BD00300F40BF
:4001800000400F402410000004000140100001400C000140000004400800044000010440080104400803044000040440080404401804044000500F4004500F4010500F403F
:4001C00018500F40100001002001054000700F4001700F4000010B40CCF1FF0FCDF1FF0FC9F1FF0FBDF1FF0F1CFF0B4020FF0B402CFF0B40E5F1FF0F28FF0B40FFFFFBFF57
:400200000600008004010B40080202402002024008010B401000008000000240AF0400804000024010B5064C2378002B07D1054B002B02D0044800E000BF0123237010BDEC
:40024000F0000020000000002010000008B5084B002B03D00748084900E000BF07480368002B03D0064B002B00D0984708BDC0460000000020100000F4000020D00000200F
:400280000000000010B562B600F0ACFC00280ED16524012000F0E2FD00F0A4FC002806D1013CE4B2002CF4D1034B40221A6000F08BFC00F0DBFAFEE7C000002008B500F01E
:4002C00015FB00F04DFB00F0B5FB08BD70B5054B0D1C161C0024C9B21C8000F09FFB3580201C70BD0C010020F0B50A275F4387B003900591151C00262D4CBE4219DA00F0E6
:400300001DFB80B220802388002B0CD00220268800F0A4FD00F012FB80B220802388B6B2B342F3D807E00120013600F097FDB6B2E2E7052600E0002600272F802388002B4D
:4003400033D023889BB2019301992B885A18059992B22A808A4221D2019ABB189BB2029302998F4209D07B1C9BB20493039BDF1900F0CAFA3870049FF2E772B62388019AF8
:400380009B1A9BB2238062B6039A5318013B1B78172B08D0052000F061FD04E02B8000F0DFFA052601E0029FC8E7301C07B0F0BD0C010020FEE7000070B51048104B013895
:4003C000421C15D01E685C689D680022A118AA4203D0B158A1500432F8E7DA680D1C4C1B944202D0002410C1F9E710330138E7E700F0DAFDFFF746FFFEE7C046010000003B
:400400007410000008B500239A00032B02D80D49895800E00C490D4801338150302BF3D1FFF7FCFD0A4B00221A600A4B1A68002A00D11A608023DB051A6801210A431A60B7
:4004400008BDC04600000000B503000000000020C8000020C0000020004770B5051C0E1C141C002802D0002000F0EAFC0020002C05D0013CAA19125D8318D8B2F7E770BD7A
:40048000013808B509282AD8C901494200F078FD0507090B0D0F1614181B154B08E0154B12E0154B0DE0154B0EE0154B00E0154BC9180878C0B21AE0134B02E0134B00E0A0
:4004C000134BC9180FE0134BC9180B7848788A780002120410431843CB781B0606E0002000F0AEFC00210B7848780002184308BDC07F0000C17F0000C57F0000C97F0000EF
:40050000D07F0000D17F0000D67F0000D27F0000D47F0000D87F00000C4B10B51A6810231A400B4B00D11A601A68802A0DD100240220211C1C60FFF7A3FFA04205D0211C6B
:400540000220FFF79DFFFFF787FF10BD00030B40C0000020F8B5051C291C0320FFF790FF291C041C0420FFF78BFF671CFF013F18291C0320FFF784FF00240130C001261C79
:40058000B84209D203785A1ED2B2FD2A00D801261C19E4B20130F3E70120291CFFF770FF6442E4B20623844203D17242564176423340181CF8BD0000F0B5A44CA544FFF756
:4005C0007DFE62B600260096002506AC03AE9621201C4900321CFF23FFF786FE0028F4D13188062900D88AE022780423012A54D1E778A2783F021743E2195679B44616796F
:400600000196FE1D8E427FD89279172A45D1FB189BB2002B08D09CA98D4ECA1892191278013B801880B2F3E7019B614640420A0280B21A43082382422FD167E0342B00D040
:400640009DE0009901295AD1032F58D151A80021802200F0D8FC802551A948192639ED19FA1EFF39ADB200F0C5FC832D49D1A079637900021843774B36021B6880191A68BB
:4006800080B2D3099BB2560601D001339BB298427BD20127009700250A2300210120207068466A46437681766B4600200E32D8760B1D11809BB29CAFFE18654F013BF61954
:4006C00036789BB2801980B2002BF4D19CAE624F7318DE194042614F80B23070DE19000A30705F4807311B181720187089B2201C9623FFF7EBFD68E7009E012E1BD0042315
:40070000CBE70126009600250323C6E763782679181C31380A2801D90523BEE700F03AFCECFF1400FCFF8EFF3F00FCFF430054008EFF63008B00002FE1D1381CFFF70AFF35
:4007400043424341237173E000980128D7D1012FD5D1002ED3D13F4B1B681B68DA0BD2B2DB09DBB2002A01D080235B0023711B0A6371FF23A3710023E37104218EE7009BA6
:40078000012BBCD1022FBAD966E751A900F048FA002800D07DE701260096051C12E0009F012FACD110E7009E012EA8D19623EE195B009E42A8D851A948193A1C07A900F0C2
:4007C00019FCB5B2002368E7002F98D104AB254A191C41CA41C107AA41CB41C2012600963B1C08215AE70098012888D1032F86D1A37962791B021A43310251180192C901C8
:4008000000208022FFF729FE071C002E0ED10199FF290BD1311C0520FFF732FE311C3F1A0620FFF72DFEFFB23F1AFFB27F4227710023012132E70020FFF78CFE002802D179
:40084000094B80221A6000F0FDFA58E78CFDFFFFA7FDFFFFD4000020ACFDFFFFADFDFFFFAEFDFFFF48100000C000002038B50020FFF770FE0025A84200D00625124C00209C
:400880002368C0211A68C03AFFF7E7FD62681378181AC0B2984203D123681B68002B02D1002000F0CDFA094B19681A1C402901D0002D03D000231360FFF77EFE80221A6083
:4008C00000F0C0FA38BDC046D4000020C000002008B5054B8022196812060A431A600A2000F09AFA08BDC0460000064010B5054C2378002B03D100F0BFF801232370FFF7AD
:40090000E7FF10BD10010020094B0A4A1968136899420BD011684B1C4039481E814149420B400549C85C1360C0B200E000207047B0010020280100206C010020064B074ACB
:400940001B6811688B4202D31068181A02E012684133981A7047C046B0010020280100200C4A0D4B002130B5106811601D68802464022C431C601D68084C2C401C60084BAB
:400980001C68084B1C60084B19700849084B1960106030BDC80F064004030640FFFFFEFF28010020B0010020AD010020ED0F0000C00F0640124910B50A68531C3F3A541E44
:4009C000A241524213400F4A1468A342FBD00C681268944208D10C4A14680F222240082A02D00A4B18600AE0094C02222260094CC0B2E0540B60084B19680A431A6010BD22
:400A000024010020200100200802064040020640800F06402C010020880F064038B5041C4518AC4204D02078FFF7C4FF0134F8E738BD00000B4A0023116810B513600A4B55
:400A400080201C684002204318601C68074820401860074B1868074B186002239943116010BDC046880F064004020640FFFFFEFF20010020240100201D4A1E4B10B51A60F0
:400A80001D4B00241C601D4B01221A601C491D4B07200B601C4908601C490A200C601C490A601C4A13601C4B1C6000F0BFF90A20032100F091F919490A2000F081F9184BAE
:400AC00004221C60174B1C60174B1C60174B1C60174B1A60174B1C60174B1C60174B1C60174B1C70174B1C60174B1C6010BDC0460B00000200000640400006404800064060
:400B0000000306400700008004030640100306404400064000020640040206409D0E0000880E0640C80E0640480F0640080F0640C80F0640880F0640B00100202801002070
:400B4000AD01002024010020200100200E4B8422D2041A601968802252020A431A600B490B4A0A60196819600A4BC32189001960094B00211960094B1C211960084B1A6087
:400B8000084A094B1A60704700010540080105401027000024010540380105402801054014010540881300000C01054008B500F02DF8044B01211A680A431A6000F02AF858
:400BC00008BDC0460000054010B5054C2378002B03D1FFF7BBFF01232370FFF7E7FF10BD18010020024B18680006C00F7047C04604000440000000000230800804D0C046B1
:400C00000138FDD1C046C046C0467047EFF3108072B6704780F310887047C046C046C046F0B50024CBB0069404900794FF2800D9A4E0A14200D1A1E008AD8022281C00F06E
:400C4000D9F9231C211C221C029498002858002802D01218014302930133202BF5D1002A05D1002900D08EE00191039102E0002001900390484F7F2328AE291C80222AA87D
:400C80002897464C736000F0B5F9454A454B266013602168090F0A2903D022680F23134000E000230693069F002F69D1FFF7AEFF3D4A3E4B116807971960069B0590002B56
:400CC00014D13B4A04982892289A01040A43289228AA22603249374A0A602268120F0A2A03D02E4B1A680F2313400693069F002F38D1019A002A35D0391C8022281C00F00F
:400D000082F90298039A08A983005A50224B2AA8289380227F23736000F06CF9214820492660086023681B0F0A2B03D01B4B1F680F231F400697069B002B13D11E4A049871
:400D40002892289A01040A43289215491B4A26600A602268120F0A2A03D0104B1A680F2313400693079B002B04D1104A0E481268026007930598FFF74DFF01E00423069343
:400D800006984BB0F0BD02998B00E85801210390EA5001916EE7C046B6D7000008000040040000400400008008010B401C010020B6D8000005000080B6D900000600008055
:400DC0001F2800D901BE034A80008318186819607047C0464000002038B5041C0D1E032D00D901BE1F2C00D901BEFFF70FFFA308084A9B009B18032214409440196806345C
:400E0000A2409143A5400C1C2C431C60FFF702FF38BDC04600E400E01F23184001238340181C014B1860704700E100E01F23184001238340181C014B1860704780E100E0EC
:400E400001BE7047034B04491A6892B20A431A607047C0460CED00E00400FA0510B5041C8022074B1202944205D91868FFF7C4FE044BE418F4E758686043FFF7BDFE10BD5B
:400E8000DC0000200080FFFF08B5034B1B7A5843FFF7B2FE08BDC046DC000020274B10B51B68002B00D09847254B1B685A071DD5244B1B681A0716D0234B244A1868116868
:400EC0004B1C40394C1EA14149420B40204909688B4203D11F4B20221A70E9E71E49C0B2C8541360E4E71D4B04221A601C4B1B689A0721D51B4B1A680F231340082B18D02B
:400F0000194B1A4A1968136899420DD011684B1C3F39481E814149420B401549C85C1549C0B208601360E5E7134B02211A688A431A60124B02221A6010BDC0461401002099
:400F4000CC0F06400803064040030640B001002028010020AD0100206C010020C00F06408C0F06400802064024010020200100202C01002040020640880F0640800F0640AE
:400F800002B4714649084900095C49008E4402BC7047C04603B47146490840004900095E49008E4403BC704770B50E4B0E4D0024ED1AAD101E1CAC4204D0A300F358984765
:400FC0000134F8E700F044F8084B094D0024ED1AAD101E1CAC4204D0A300F35898470134F8E770BD5C1000005C1000005C1000006410000010B50023934203D0CC5CC4548E
:401000000133F9E710BD031C8218934202D019700133FAE770470000A8100000EE0000000000000001330F4003410F4004430F4002600F40E61062048E04D84018808C40AD
:40104000C608E608020111019311C804111E0101F8B5C046F8BC08BC9E4670474D02000005040000F8B5C046F8BC08BC9E4670472502000088100000D0000020200000004B
:40108000C80000000000000000000000181000001C1000000000E02EC05D00001800000000366E01000000000000000000000000000000000000000000000000000000002C
:4010C00000000000000000000000000000000000000000000000000000000000000000000000000000000000000000000000000000000000000000000000000000000000F0
:401100000010002011110000F5190000F519000008B5024B83F3088800F074FC00100020F8B572B680220021D200574801F09EF880225648D200002101F098F80022141C0B
:401140005349FF25575828313E1C081C6300AE433D4001336419CB186100013141188B4206D0581E00781D78801905700233F6E70432282AE4D1A022464B12011A80012232
:40118000454B46491A70464A464B3C201A60464A464B474C1A60EE22464B1A609923464A1B041360454A11604549464A1160AA21454A09061360454A11600221444A1360D9
:4011C000444A1360444A454B1A60454A13780B43444913700B788343283803430B701621137804300B431370FF223F4B3F491A603F4A404B1A60F3233F4A13603F4A116066
:401200000A213F4A11603F4A353111603E493F4A11603F4A13603F4A3F4B1A6003223F4B1A603F4B21321A6080222368D2021343236000F055FC22683A4B3B49134023601B
:401240003A4A3B4B1A6010223A4B1A6030233A4A13603A4A136020220A6039490A6039490A60394A394913608022394B12061A60002323600A60374A37490A6037490A605F
:40128000374A1360F8BDC04600300F4000400F409422000000600F4002600F400000A880030033030000014033EE33330C00014000010B401000014000500F4004500F4006
:4012C0000000012D08500F4010500F4014500F4020500F4030500F400000582D38500F4000700F4001700F4000000440922D490096645B00080004400001044008010440CF
:401300000C01044000020440922401000802044000030440B66DDB00080304400004044008040440FFFFFBFF280202400600008004010B4008020240200202402402024093
:401340002C020240340202403C0202400000024008010B400200008040000240800002400C020B4010B5064C2378002B07D1054B002B02D0044800E000BF0123237010BDDF
:4013800050010020000000007C22000008B5084B002B03D00748084900E000BF07480368002B00D108BD064B002BFBD09847F9E7000000007C22000054010020D00000204D
:4013C0000000000008B500F07FFE00F051FE00F047FE012801D100F037FE00F041FE022802D1013800F024FEFA2000F059FB002000F02AFE002000F01BFE08BDF0B500246B
:4014000085B002AB201C9C80DC8000F01DFE201C00F00EFE5E4800F045FE032000F030FE62B600F057FA01255A4B03AF1E785A4B1B78281C019300F0EFF8002E00D09EE0EA
:40144000019B012B00D09AE03C88544B9C4205D8534B012D00D0534B1E7079E0524B534AE3189BB2934276D9514B524AE3189BB2934205D8012D66D06A464A4B127966E0C9
:401480004D4B4E49E3189BB28B4264D94C4B4D48E3189BB2834211D896239B019C423DD1FA20C000012D04D100F086FDFA2080002AE000F055FEFA2080002CE0424BE318E3
:4014C0009BB28B4247D9414BE3189BB2834206D8019B334A012D00D0324A137038E03C4BE3189BB2934236D93A4BE3189BB28B421BD8394B9C4211D1FA200001012D06D169
:4015000000F05AFDFA20C00000F05CFD08E000F027FEFA20C00000F029FE04E0012D02D100221F4B13E0002210E02C4BE3189BB2934210D92A4B214AE3189BB293420DD87E
:401540000122012D02D1164B1D7001E0154B1A70281C00F0A1F801343C8010E0214B154AE3189BB29342F6D9012D02D10C4B1D7002E001220B4B1A70281C00F08DF802376D
:40158000022D00D14FE7184B02251E78174B4FE7C5130000830100207D010020830C00007B010020770100207CF3FFFF3B06000040EDFFFF7F0C0000C0E0FFFF3F06000019
:4015C00080DAFFFFFF18000080C1FFFF40BBFFFF40A2FFFFC095FFFF406A0000808FFFFF0083FFFFC07C0000800100207A010020064A074B012900D0064B1B78984202D92C
:401600005B00181AC0B2105C7047C046802200007E0100207F01002010B5012815D100F0F7FC174C174B22781A70002802D100F0DFFC01E000F05EFC207000F0F1FC124C45
:40164000002819D100F0DCFC14E000F0AFFD0F4C0F4B22781A70002802D100F097FD01E000F038FD207000F0A9FD0A4C002803D100F094FD207001E00023237010BDC046AF
:401680007D010020830100207B0100207A0100208001002077010020F8B5041E012C55D1564B574A1B781278564E574D574F9A4216D0042B0BD003D80822022B0BD024E02C
:4016C000082B07D0102B20D1514A107006E0504A137002E002224E4B1A701023337014E000F0B6F84B4B211C187800F0A7F84A4B47491B78012B0AD1327809782B78501A1C
:401700008218934201DACB180BE0002309E02A7809788A4202D3521A2A7003E033785B005B1A2B7028783378984201D21B1800E0C31A01213B70FFF75BFF00F0EBFA0121C6
:401740003878FFF755FF00F087FA56E0334B344A1B781278334E344D344F9A4217D0042B0CD003D80822022B0CD025E0082B08D0102B21D101212E4A117006E02C4A137017
:4017800002E002222A4B1A701023337014E000F05FF8284B211C187800F050F8264B1B78012B0BD12249327809782B78501A8218934201DACB180CE000230AE01C4B2A78BD
:4017C00019788A4202D3521A2A7003E033785B005B1A2B7028783378984201D21B1800E0C31A211C3B70FFF703FF00F04FFB211C3878FFF7FDFE00F0EBFAF8BD82010020AB
:40180000740100207E0100207301002085010020860100207C0100207B01002075010020890100207F010020790100207601002081010020840100207701002008B5012983
:4018400002D100F0CFFB01E000F0C0FC08BD000000B501280BD1174B1B78002B03D0164B1B78002B25D1154B1A78154B0AE0154B1B78002B03D0144B1B78002B19D1134B35
:401880001A78134B1878002A05D1032811D800F0B7FC0E0C0A0803280BD800F0B1FC02040608012204E0032202E0002200E002221A7000BD73010020850100207B010020B5
:4018C0007C010020790100207601002077010020840100200021F8B5314B324A197010231370314A31481370314A324E1370324A33701370012202703048314F01703149C9
:401900000B7031490B7031490B70314B1A70314B314A1D781C1C15701A7C3A702F4A12782F4B002A00D00222281C1A7000F0F2F9387800F091F900F04BFB00F011FA00F024
:40194000B1F90820182100F0EBF90420182100F089F900F023FB234B32781D70A25C224B1A70224A1C1C1278214B002A00D00222281C1A7000F08AFA207800F029FA00F07C
:40198000FBFB00F0A9FA00F049FA0120182100F083FA0220182100F021FA00F0D3FBF8BD73010020850100208201002086010020740100207F0100207E01002079010020D9
:4019C000720100207601002075010020890100208101002080220000780100207B0100207C0100208801002087010020770100208401002008B500F00DFC03680C2B00D1B0
:401A0000FEE7FEE770B51049104B01394A1C15D000221E685C689D68A018AA4203D0B058A0500432F8E7021CDC68151AA54202D0002520C2F9E710330139E7E700F0F0FB32
:401A4000FFF7DCFCFEE7C04601000000B824000008B500239A000D49032B01D80C4989580C4801338150302BF4D1FFF759FB0022094B1A60094B1A68002A00D11A60802223
:401A80000121D20513680B43136008BDF51900000011000000000020C8000020C000002010B5041C8022074B1202944205D9586800F092FB044BE418F4E79868604300F08E
:401AC0008BFB10BDD40000200080FFFF08B5034B1B7B584300F080FB08BDC046D4000020F0B5051C87B000F081FBEB1E049003932D2B5BD8304B1B789D4204D82F4B1C78BD
:401B00002F4BE4B21EE02F4B1B789D4204D82E4B1C782E4BE4B215E02D4B1B789D4204D82C4B1C782C4BE4B20CE02C4B1B789D4204D82B4B1C782B4BE4B203E02A4B1C782D
:401B40002A4BE4B21B78039ADBB20193284B294F9A5C059302922F2A04D92A2D02D919263E6008E03F233E681E40029BB34205D2204B029A1A60052000F02EFB1B4B1E4A73
:401B8000ED182B780520DBB213601C4B019A1C601B4B1A60FFF79AFF029BB34206D9059B039A05209B5C3B6000F016FB049800F021FB07B0F0BDC046C0F1FF0FC1F1FF0F74
:401BC000C2F1FF0FC3F1FF0FC4F1FF0FC5F1FF0FC6F1FF0FC7F1FF0FC8F1FF0FC9F1FF0FCAF1FF0FCBF1FF0FCCF1FF0FCDF1FF0F642400002CFF0B4028FF0B401CFF0B40C1
:401C000020FF0B40802200210C4BD2041A601A681A600B4A11601A681A60FF22094B92001A600122084B1A60084B30321A60084BCE321A60074B013A1A6070478001054021
:401C400088010540A4010540B8010540A8010540940105408C010540014B80B2186070478C01054038B50D1C041CAC4000F0BEFA024B1C6000F0BEFA38BDC0460800054012
:401C800010B5042400F0B2FA054A13682343136000F0B0FA201C1821FFF7E4FF10BDC0460000054010B5054C2378002B03D1FFF7A9FF01232370FFF7E3FF10BD6C010020C1
:401CC00080220D4BD2041A601A680C491A6000220A6019681960FF21094B890019600121084B1960084B30311960084BCE311960074B1A607047C046C0010540C8010540CA
:401D0000E4010540F8010540E8010540D4010540CC010540014B80B218607047CC01054038B50D1C041CAC4000F060FA024B1C6000F060FA38BDC0460800054010B508246A
:401D400000F054FA054A13682343136000F052FA201C1821FFF7E4FF10BDC0460000054010B5054C2378002B03D1FFF7A9FF01232370FFF7E3FF10BD6D01002080220021E5
:401D80000C4BD2041A601A681A600B4A11601A681A60FF22094B92001A600122084B1A60084B30321A60084BCE321A60074B013A1A607047400105404801054064010540D5
:401DC0007801054068010540540105404C010540014B80B2186070474C01054038B50D1C041CAC4000F002FA024B1C6000F002FA38BDC0460800054010B5022400F0F6F937
:401E0000054A13682343136000F0F4F9201C1821FFF7E4FF10BDC0460000054010B5054C2378002B03D1FFF7A9FF01232370FFF7E3FF10BD6E01002080220D4BD2041A6039
:401E40001A680C491A6000220A6019681960FF21094B890019600121084B1960084B30311960084BCE311960074B1A607047C046000105400801054024010540380105402A
:401E800028010540140105400C010540014B80B2186070470C01054038B50D1C041CAC4000F0A4F9024B1C6000F0A4F938BDC0460800054010B5012400F098F9054A136887
:401EC0002343136000F096F9201C1821FFF7E4FF10BDC0460000054010B5054C2378002B03D1FFF7A9FF01232370FFF7E3FF10BD6F010020024B1868C006C00F7047C046CB
:401F0000040004408023024A11780B431370704773000F40034B1B78DB0602D5024B1B88F8E7704763000F40A4100F403F2110B5134A144C13788B4336390B431370124BEB
:401F400008391A780A431A702378104A0B432370FA235B0113800E4A1380FA220D4B12011A8000220C4B1A7000F040F9102223781343237000F03EF9FFF7CCFF10BDC0462C
:401F800073000F4093000F4092000F4004100F4084100F4044100F4083000F4010B5054C2378002B03D1FFF7C1FF01232370FFF7A9FF10BD70010020014B18807047C04627
:401FC00084100F40014B18807047C04644100F408021034A090613680B4313607047C04640000240014B18707047C04670000F40024B18688007C00F7047C04604000440CA
:40200000024B18684006C00F7047C04604010440024B1868C006C00F7047C04604010440024B18680006C00F7047C0460400044008230449C0000A689A43D2B20340134305
:402040000B607047000104400423044980000A689A43D2B2034013430B60704700010440024B1868032318407047C046040104400323024A10681840106070471001044023
:4020800010B5041C00F0B2F80449054A0B68A403134023430B6000F0ADF810BD00E400E0FF3FFFFF10B50224044B1C60044B58640320FFF7E5FF034B1C6010BD80E100E0CF
:4020C0000000002000E100E00222014B1A60704780E200E0024B18688006C00F7047C046040004403F210D4A13788B4336390B4313700B4B08391A780A431A70094A1378C7
:402100000B431370FA23084A5B011380074A1380FA22074B12011A807047C04671000F4090000F4091000F4000100F4080100F4040100F408023024A11780B431370704758
:4021400071000F4010B5054C2378002B03D1FFF7C9FF01232370FFF7EDFF10BD71010020014B18807047C04680100F40014B18807047C04640100F408021034A0906136801
:402180000B4313607047C04680000240024B18680007C00F7047C04604000440024B18680006C00F7047C04604010440024B18688006C00F7047C04604010440024B18689A
:4021C0004007C00F7047C04604000440014B18707047C04672000F400230800804D0C0460138FDD1C046C046C0467047EFF3108072B6704780F310887047C046C046C046E9
:4022000002B4714649084900095C49008E4402BC7047C046014B18687047C046480100200E4B70B500251E1C0D4CE41AA410A54204D0AB00F35898470135F8E700F02AF90A
:40224000084B00251E1C084CE41AA410A54204D0AB00F35898470135F8E770BDA0240000A0240000A0240000A8240000031C8218934202D019700133FAE770470000000007
:40228000647382919FADBAC6D2DCE5EDF3F8FCFEFF00000001000F4036300F4015310F403F320F4024330F4009400F4007410F4002420F4011430F4002600F40830D4020FE
:4022C000410349FF4AFF4BFF4DA04F0450185A045B045D035F01604062C06440654066C068C06AC06CC06EC086029A02AE01B002B401C020C103C501C620C809C9FFCAFFD1
:40230000CBFFCDAFCE0FCF04D018D280D804DA04DB04DC03DD33DF01E040E2C0E440E540E6C0E8C0EAC0ECC0EEC004040F0817801C041D201E8040044220452046204F082F
:40234000562068046A40778082408804C020C240C480D0664060410549FF4AFF4BFF4DA04F0450185A045B045D015F01604062C06440654066C068C06AC06CC06EC08606E3
:402380008E0292019B01A60CAD01B004B202B401B608B701BE04C020C105C5D1C720C823C9FFCAFFCBFFCDAFCE0FCF04D018D280D405D804D904DA04DB04DC11DD11DF01D0
:4023C000E040E2C0E440E540E6C0E8C0EAC0ECC0EEC00004020209021020180419441A401B102240294030204004482049014A024E024F20520259055A806E806F087102BF
:4024000086408E408F08AE40C005C208C404CA08CC04D004D238D60BE64057086380641065808340D440D680D8C0E22087088D809D80A708AC10E640EE408810E00418082F
:4024400019011C011F015004581060016320650167028F109810C60FD405D603D803E008100A1101030405060708090A0B0C0E0F101112131415161718191B1C1D1E1F20F3
:4024800021222325262728292A2B2E2F3031323334354300F8B5C046F8BC08BC9E4670478D130000511A0000F8B5C046F8BC08BC9E46704765130000C8240000D0000020E4
:4024C000800000004000000000000000010000000000E02EC05D00001800000000366E01000000000000000000000000000000000000000000000000000000000000000033
:4025000092240000000000000000000000000000000000000000000000000000000000000000000000000000000000000000000000000000000000000000000000000000E5
:40254000E800002000000000000000000000000000000000000000000000000000000000000000000000000000000000000000000000000000000000000000000000000053
:40258000000000000000000000000000000000000000000000000000000000000000000000000000000000000000000000000000000000000000000000000000000000001B
:4025C00000000000000000000000000000000000000000000000000000000000000000000000000000000000000000000000000000000000000000000000000000000000DB
:40260000000000000000000000000000000000000000000000000000000000000000000000000000000000000000000000000000000000000000000000000000000000009A
:40264000000000000000000000000000000000000000000000000000000000000000000000000000000000000000000000000000000000000000000000000000000000005A
:407FC0002D1111000021000000801400000000000000010000000000000000000000000000000000000000000000000000000000000000000000000000000000000000007C
:0200000490303A
:02000000AE68E8
:0200000490402A
:20000000FFFFFFFF00000000000000000000000000000000000000000000000000000000E4
:0200000490501A
:0C000000000204C81193110004D3BFFBE0
:0200000490600A
:0100000001FE
:00000001FF