:400000000010002011000000B5030000B503000008B500F081FA00F0CFF90000F7B572B680220021D200554800F0EDFF802200215348D20000F0E7FF0023191C514C1859E1
:400040001034C2B20192071CFF2297434A00A4180022019ED5B2AE4209D05500665D6519B446BC446D78664635700132F1E7C0B204330918102BE1D1434BC02292041A60F8
:40008000424B99221A60424A00231360414A80211160414AC9031160404A40211160404AC021490311603F4A312113603E4B02221A603E4B802019603D4B3E491A60992317
:4000C0001B040B603C49000608603C493C200B603B4B8021890519603A493B4B19603B4B19780A431A703A4A117881431420014311701A7816210A431A70364A8023116893
:40010000DB020B431360344B141C1878334BC0B21978334BC9B21A78172A05D9314A58789978033B9342F6D12F4B192218602F4B052019602E4B1A6000F05EFD2D4B052061
:400140001A782D4BD2B21A6000F09EFE22682B4B134023602A4A2B4B1A602B4B10221A602A4B20221A602A4B802212061A60294A294B1A60294A2A4B1A60F7BD00300F40BF
:4001800000400F402410000004000140100001400C000140000004400800044000010440080104400803044000040440080404401804044000500F4004500F4010500F403F
:4001C00018500F40100001002001054000700F4001700F4000010B40CCF1FF0FCDF1FF0FC9F1FF0FBDF1FF0F1CFF0B4020FF0B402CFF0B40E5F1FF0F28FF0B40FFFFFBFF57
:400200000600008004010B40080202402002024008010B401000008000000240AF0400804000024010B5064C2378002B07D1054B002B02D0044800E000BF0123237010BDEC
:40024000F0000020000000002010000008B5084B002B03D00748084900E000BF07480368002B03D0064B002B00D0984708BDC0460000000020100000F4000020D00000200F
:400280000000000010B562B600F0ACFC00280ED16524012000F0E2FD00F0A4FC002806D1013CE4B2002CF4D1034B40221A6000F08BFC00F0DBFAFEE7C000002008B500F01E
:4002C00015FB00F04DFB00F0B5FB08BD70B5054B0D1C161C0024C9B21C8000F09FFB3580201C70BD0C010020F0B50A275F4387B003900591151C00262D4CBE4219DA00F0E6
:400300001DFB80B220802388002B0CD00220268800F0A4FD00F012FB80B220802388B6B2B342F3D807E00120013600F097FDB6B2E2E7052600E0002600272F802388002B4D
:4003400033D023889BB2019301992B885A18059992B22A808A4221D2019ABB189BB2029302998F4209D07B1C9BB20493039BDF1900F0CAFA3870049FF2E772B62388019AF8
:400380009B1A9BB2238062B6039A5318013B1B78172B08D0052000F061FD04E02B8000F0DFFA052601E0029FC8E7301C07B0F0BD0C010020FEE7000070B51048104B013895
:4003C000421C15D01E685C689D680022A118AA4203D0B158A1500432F8E7DA680D1C4C1B944202D0002410C1F9E710330138E7E700F0DAFDFFF746FFFEE7C046010000003B
:400400007410000008B500239A00032B02D80D49895800E00C490D4801338150302BF3D1FFF7FCFD0A4B00221A600A4B1A68002A00D11A608023DB051A6801210A431A60B7
:4004400008BDC04600000000B503000000000020C8000020C0000020004770B5051C0E1C141C002802D0002000F0EAFC0020002C05D0013CAA19125D8318D8B2F7E770BD7A
:40048000013808B509282AD8C901494200F078FD0507090B0D0F1614181B154B08E0154B12E0154B0DE0154B0EE0154B00E0154BC9180878C0B21AE0134B02E0134B00E0A0
:4004C000134BC9180FE0134BC9180B7848788A780002120410431843CB781B0606E0002000F0AEFC00210B7848780002184308BDC07F0000C17F0000C57F0000C97F0000EF
:40050000D07F0000D17F0000D67F0000D27F0000D47F0000D87F00000C4B10B51A6810231A400B4B00D11A601A68802A0DD100240220211C1C60FFF7A3FFA04205D0211C6B
:400540000220FFF79DFFFFF787FF10BD00030B40C0000020F8B5051C291C0320FFF790FF291C041C0420FFF78BFF671CFF013F18291C0320FFF784FF00240130C001261C79
:40058000B84209D203785A1ED2B2FD2A00D801261C19E4B20130F3E70120291CFFF770FF6442E4B20623844203D17242564176423340181CF8BD0000F0B5A44CA544FFF756
:4005C0007DFE62B600260096002506AC03AE9621201C4900321CFF23FFF786FE0028F4D13188062900D88AE022780423012A54D1E778A2783F021743E2195679B44616796F
:400600000196FE1D8E427FD89279172A45D1FB189BB2002B08D09CA98D4ECA1892191278013B801880B2F3E7019B614640420A0280B21A43082382422FD167E0342B00D040
:400640009DE0009901295AD1032F58D151A80021802200F0D8FC802551A948192639ED19FA1EFF39ADB200F0C5FC832D49D1A079637900021843774B36021B6880191A68BB
:4006800080B2D3099BB2560601D001339BB298427BD20127009700250A2300210120207068466A46437681766B4600200E32D8760B1D11809BB29CAFFE18654F013BF61954
:4006C00036789BB2801980B2002BF4D19CAE624F7318DE194042614F80B23070DE19000A30705F4807311B181720187089B2201C9623FFF7EBFD68E7009E012E1BD0042315
:40070000CBE70126009600250323C6E763782679181C31380A2801D90523BEE700F03AFCECFF1400FCFF8EFF3F00FCFF430054008EFF63008B00002FE1D1381CFFF70AFF35
:4007400043424341237173E000980128D7D1012FD5D1002ED3D13F4B1B681B68DA0BD2B2DB09DBB2002A01D080235B0023711B0A6371FF23A3710023E37104218EE7009BA6
:40078000012BBCD1022FBAD966E751A900F048FA002800D07DE701260096051C12E0009F012FACD110E7009E012EA8D19623EE195B009E42A8D851A948193A1C07A900F0C2
:4007C00019FCB5B2002368E7002F98D104AB254A191C41CA41C107AA41CB41C2012600963B1C08215AE70098012888D1032F86D1A37962791B021A43310251180192C901C8
:4008000000208022FFF729FE071C002E0ED10199FF290BD1311C0520FFF732FE311C3F1A0620FFF72DFEFFB23F1AFFB27F4227710023012132E70020FFF78CFE002802D179
:40084000094B80221A6000F0FDFA58E78CFDFFFFA7FDFFFFD4000020ACFDFFFFADFDFFFFAEFDFFFF48100000C000002038B50020FFF770FE0025A84200D00625124C00209C
:400880002368C0211A68C03AFFF7E7FD62681378181AC0B2984203D123681B68002B02D1002000F0CDFA094B19681A1C402901D0002D03D000231360FFF77EFE80221A6083
:4008C00000F0C0FA38BDC046D4000020C000002008B5054B8022196812060A431A600A2000F09AFA08BDC0460000064010B5054C2378002B03D100F0BFF801232370FFF7AD
:40090000E7FF10BD10010020094B0A4A1968136899420BD011684B1C4039481E814149420B400549C85C1360C0B200E000207047B0010020280100206C010020064B074ACB
:400940001B6811688B4202D31068181A02E012684133981A7047C046B0010020280100200C4A0D4B002130B5106811601D68802464022C431C601D68084C2C401C60084BAB
:400980001C68084B1C60084B19700849084B1960106030BDC80F064004030640FFFFFEFF28010020B0010020AD010020ED0F0000C00F0640124910B50A68531C3F3A541E44
:4009C000A241524213400F4A1468A342FBD00C681268944208D10C4A14680F222240082A02D00A4B18600AE0094C02222260094CC0B2E0540B60084B19680A431A6010BD22
:400A000024010020200100200802064040020640800F06402C010020880F064038B5041C4518AC4204D02078FFF7C4FF0134F8E738BD00000B4A0023116810B513600A4B55
:400A400080201C684002204318601C68074820401860074B1868074B186002239943116010BDC046880F064004020640FFFFFEFF20010020240100201D4A1E4B10B51A60F0
:400A80001D4B00241C601D4B01221A601C491D4B07200B601C4908601C490A200C601C490A601C4A13601C4B1C6000F0BFF90A20032100F091F919490A2000F081F9184BAE
:400AC00004221C60174B1C60174B1C60174B1C60174B1A60174B1C60174B1C60174B1C60174B1C70174B1C60174B1C6010BDC0460B00000200000640400006404800064060
:400B0000000306400700008004030640100306404400064000020640040206409D0E0000880E0640C80E0640480F0640080F0640C80F0640880F0640B00100202801002070
:400B4000AD01002024010020200100200E4B8422D2041A601968802252020A431A600B490B4A0A60196819600A4BC32189001960094B00211960094B1C211960084B1A6087
:400B8000084A094B1A60704700010540080105401027000024010540380105402801054014010540881300000C01054008B500F02DF8044B01211A680A431A6000F02AF858
:400BC00008BDC0460000054010B5054C2378002B03D1FFF7BBFF01232370FFF7E7FF10BD18010020024B18680006C00F7047C04604000440000000000230800804D0C046B1
:400C00000138FDD1C046C046C0467047EFF3108072B6704780F310887047C046C046C046F0B50024CBB0069404900794FF2800D9A4E0A14200D1A1E008AD8022281C00F06E
:400C4000D9F9231C211C221C029498002858002802D01218014302930133202BF5D1002A05D1002900D08EE00191039102E0002001900390484F7F2328AE291C80222AA87D
:400C80002897464C736000F0B5F9454A454B266013602168090F0A2903D022680F23134000E000230693069F002F69D1FFF7AEFF3D4A3E4B116807971960069B0590002B56
:400CC00014D13B4A04982892289A01040A43289228AA22603249374A0A602268120F0A2A03D02E4B1A680F2313400693069F002F38D1019A002A35D0391C8022281C00F00F
:400D000082F90298039A08A983005A50224B2AA8289380227F23736000F06CF9214820492660086023681B0F0A2B03D01B4B1F680F231F400697069B002B13D11E4A049871
:400D40002892289A01040A43289215491B4A26600A602268120F0A2A03D0104B1A680F2313400693079B002B04D1104A0E481268026007930598FFF74DFF01E00423069343
:400D800006984BB0F0BD02998B00E85801210390EA5001916EE7C046B6D7000008000040040000400400008008010B401C010020B6D8000005000080B6D900000600008055
:400DC0001F2800D901BE034A80008318186819607047C0464000002038B5041C0D1E032D00D901BE1F2C00D901BEFFF70FFFA308084A9B009B18032214409440196806345C
:400E0000A2409143A5400C1C2C431C60FFF702FF38BDC04600E400E01F23184001238340181C014B1860704700E100E01F23184001238340181C014B1860704780E100E0EC
:400E400001BE7047034B04491A6892B20A431A607047C0460CED00E00400FA0510B5041C8022074B1202944205D91868FFF7C4FE044BE418F4E758686043FFF7BDFE10BD5B
:400E8000DC0000200080FFFF08B5034B1B7A5843FFF7B2FE08BDC046DC000020274B10B51B68002B00D09847254B1B685A071DD5244B1B681A0716D0234B244A1868116868
:400EC0004B1C40394C1EA14149420B40204909688B4203D11F4B20221A70E9E71E49C0B2C8541360E4E71D4B04221A601C4B1B689A0721D51B4B1A680F231340082B18D02B
:400F0000194B1A4A1968136899420DD011684B1C3F39481E814149420B401549C85C1549C0B208601360E5E7134B02211A688A431A60124B02221A6010BDC0461401002099
:400F4000CC0F06400803064040030640B001002028010020AD0100206C010020C00F06408C0F06400802064024010020200100202C01002040020640880F0640800F0640AE
:400F800002B4714649084900095C49008E4402BC7047C04603B47146490840004900095E49008E4403BC704770B50E4B0E4D0024ED1AAD101E1CAC4204D0A300F358984765
:400FC0000134F8E700F044F8084B094D0024ED1AAD101E1CAC4204D0A300F35898470134F8E770BD5C1000005C1000005C1000006410000010B50023934203D0CC5CC4548E
:401000000133F9E710BD031C8218934202D019700133FAE770470000A8100000EE0000000000000001330F4003410F4004430F4002600F40E61062048E04D84018808C40AD
:40104000C608E608020111019311C804111E0101F8B5C046F8BC08BC9E4670474D02000005040000F8B5C046F8BC08BC9E4670472502000088100000D0000020200000004B
:40108000C80000000000000000000000181000001C1000000000E02EC05D00001800000000366E01000000000000000000000000000000000000000000000000000000002C
:4010C00000000000000000000000000000000000000000000000000000000000000000000000000000000000000000000000000000000000000000000000000000000000F0
:401100000010002011110000E5190000E519000080B500AF024B83F3088800F067FCC0460010002080B500AF134B134A12688021C9020A431A60182000F088FD0E4B0E4AF7
:4011400012680E490A401A600D4B0E4A1A600E4B10221A600D4B10221A600D4B10221A600C4B802212061A600B4B0C4A1A600C4B00221A60BD4680BD00010B40FFFFFBFF7B
:4011800004010B400600008020020240240202403002024008010B4000000240020000800C020B4080B582B000AF72B6FB1D00221A7023E0FB1D1A78131C5B009B185B0061
:4011C000414A9B183B603B681A78597809020A43997809040A43DB781B061343191C3B681A795B791B0213439BB2081C191C00F083FCFB1D1A78FB1D01321A70FB1D1B7892
:40120000012BD7D9314A324B101C191C00F084FC304B802252001A802F4B01221A702F4B2F4A1A602F4B304A1A60304B992212041A602F4B2F4A1A602F4B8C2292051A6092
:401240002E4B992212041A602D4B802292031A602C4B992212041A602B4B2C4A1A602C4A2B4B1B78DBB202210B43DBB21370294A284B1B78DBB23C218B43DBB214210B438B
:40128000DBB21370224A224B1B78DBB216210B43DBB21370204BF1221A60204B204A1A60204B04221A60204B80221A601F4B83221A601F4B1F4A1A60FFF734FF00F06CFC60
:4012C000BD4602B080BDC04674230000802300009C23000000600F4002600F4000000140000003030C00014033EE003000500F4004500F400000028808500F4010500F4096
:4013000014500F4030500F4038500F4000000D8000700F4001700F4000000440080004400260590000010440080104400003044008030440B60DC00010B5064C2378002B75
:4013400007D1054B002B02D0044800E000BF0123237010BDE8000020000000005C23000008B5084B002B03D00748084900E000BF07480368002B00D108BD064B002BFBD043
:401380009847F9E7000000005C230000EC000020D00000200000000080B582B000AFBB1D00221A8000F05AF900F0C0FA00F056F9844B1B78002B00D002E1834B1B78012B50
:4013C00000D0FDE0BB1D1B88804A93420AD8804B00221A7000F074F9BB1D1A88BB1D01321A80EDE0BB1D1B88784A93420AD9BB1D1B88784A934205D8BB1D1A88BB1D01321B
:401400001A80DDE0BB1D1B88724A93420FD9BB1D1B88714A93420AD86D4B01221A7000F04FF9BB1D1A88BB1D01321A80C8E0BB1D1B88694A93420AD9BB1D1B88674A934229
:4014400005D8BB1D1A88BB1D01321A80B8E0BB1D1B88624A93421FD9BB1D1B88604A93421AD8BB1D1A8896239B019A4209D1FA23DB00181C00F098FDFA239B00181C00F0E6
:40148000A3FD534B00221A7000F01AF9BB1D1A88BB1D01321A8093E0BB1D1B88504A93420AD9BB1D1B884F4A934205D8BB1D1A88BB1D01321A8083E0BB1D1B88494A9342B5
:4014C0000FD9BB1D1B88484A93420AD8404B01221A7000F0F5F8BB1D1A88BB1D01321A806EE0BB1D1B88404A93420AD9BB1D1B883E4A934205D8BB1D1A88BB1D01321A802D
:401500005EE0BB1D1B88394A93421ED9BB1D1B88374A934219D8BB1D1B88364A934209D1FA231B01181C00F03FFDFA23DB00181C00F04AFD264B00221A7000F0C1F8BB1D9D
:401540001A88BB1D01321A803AE0BB1D1B88284A93420AD9BB1D1B88274A934205D8BB1D1A88BB1D01321A802AE0BB1D1B88224A93420FD9BB1D1B88204A93420AD8144BFF
:4015800001221A7000F09CF8BB1D1A88BB1D01321A8015E0BB1D1B88184A93420AD9BB1D1B88174A934205D8BB1D1A88BB1D01321A8005E0064B01221A7000F081F8FFE772
:4015C000F4E6C046100100200D010020830C00000B010020BF1200003F1F00007F2500007F3E0000BF440000BF5D00003F6A00007F700000406A0000FF7C00003F830000C3
:40160000BF8F000080B584B000AF021CFB1D1A70104B1B78FA1D12789A420CD90D4B1A78FB1D1B78D31AD9B20A4B1A780F23FB188A181A7004E00F23FB18FA1D12781A707B
:401640000F23FB181B78044AD35C181CBD4604B080BDC0460E0100206023000080B500AF00F0C8FA031E0AD1124B1A78124B1A7000F0A4FA031C1A1C0E4B1A7009E00D4BC6
:401680001A780D4B1A7000F08BFA031C1A1C094B1A7000F0BDFA031E06D100F09DFA031C1A1C064B1A7002E0044B00221A70BD4680BDC0460D010020100100200B0100200A
:4016C00080B500AF604B1A78604B1B789A4249D05D4B1B78042B0FD002DC022B05D020E0082B10D0102B15D01BE0594B08221A70584B10221A7014E0554B04221A70554BA4
:4017000010221A700DE0524B02221A70514B10221A7006E04E4B01221A704E4B10221A70C0464D4B00221A704B4B1A78494B1B789A4208D2484B1A78464B1B78D318DAB2CD
:40174000464B1A704FE0444B1A78424B1B789A4249D3414B1A783F4B1B78D31ADAB23F4B1A7040E000F08EF83D4B1B78181C00F07BF83C4B1B78012B1AD1374B1B78191C5B
:40178000344B1B781A1C324B1B78D31A314A12789B18994208DA304B1A782D4B1B78D318DAB22D4B1A701EE02B4B00221A701AE0294B1A78264B1B789A4208D3264B1A7800
:4017C000234B1B78D31ADAB2234B1A700BE0214B1A781F4B1B78D31ADAB21E4B1B78D318DAB21D4B1A701C4B1A781A4B1B789A4208D2194B1A78174B1B78D318DAB2174B48
:401800001A700DE0144B1A78124B1B789A4207D3114B1A780F4B1B78D31ADAB20F4B1A700D4B1B78181CFFF7EDFE031C181C00F01DFD0A4B1B78181CFFF7E4FE031C181CBE
:4018400000F06AFCBD4680BD0F01002009010020120100200E01002008010020110100200C0100200B01002080B582B000AF021CFB1D1A70FB1D1B78181C00F0D7F9BD46EA
:4018800002B080BD80B500AF244B1B78002B03D0234B1B78002B3ED1224B1B78002B1DD1214B1B78012B0CD002DC002B05D014E0022B0AD0032B0CD00FE01B4B02221A7014
:4018C0000BE0194B00221A7007E0174B03221A7003E0154B01221A70C0461CE0124B1B78012B0CD002DC002B05D014E0022B0AD0032B0CD00FE00C4B01221A700BE00A4BF5
:4019000003221A7007E0084B00221A7003E0064B02221A70C046BD4680BDC04608010020110100200B0100200C01002080B500AF214B00221A70214B10221A70204B10226F
:401940001A70204B10221A701F4B10221A701F4B01221A701E4B1A781E4B1A701A4B1B781A1C1B4B9A5C1C4B1A701C4B1B78002B03D11B4B00221A7002E0194B02221A7011
:40198000144B1B78181C00F071FC134B1B78181C00F0C2FB00F06AFA00F03AFC00F08EFB0120182100F070FC0220182100F0C2FB00F06AFABD4680BD080100201101002032
:4019C0000F010020090100200E01002012010020602300000A010020070100200B0100200C01002080B500AFFEE7C04680B586B000AF224B7B61224B3B61204B7B6135E065
:401A00003B691B68FB603B695B68BB603B699B683B6000237B600CE0FB681A68BB681A60BB680433BB60FB680433FB607B6804337B607A683B689A42EED13B69DB683B60F3
:401A400000237B6008E0BB6800221A60BB680433BB607B6804337B607A683B689A42F2D13B6910333B617B69013B7B617B69002BC6D100F045FCFFF78FFCFEE70100000076
:401A8000D824000080B582B000AF00237B600FE07B68032B04D8134B7A689200D35800E0114B124A796889008B507B6801337B607B682F2BECD9FFF775FB0D4B00221A6012
:401AC0000C4B1B68002B02D10A4B00221A608023DB058022D205126801210A431A60BD4602B080BD00110000E519000000000020C8000020C000002080B582B000AF7860E7
:401B000039607A683B68101C00211A1C00F01EFCBD4602B080BDC04680B586B000AF7860396000233B6100237B612FE07B699B007A68D3181B68BB600F23FB18BA681A70CF
:401B4000BB68FF229343BB6018E03B695B003A68D3181B781A1CBB68D318191C3B695B003A68D3185B780B703B6901333B610F23FB181A780F23FB18013A1A700F23FB182C
:401B80001B78002BE1D17B6901337B617B69062BCCD9BD4606B080BD80B500AFBD4680BD80B500AF044B1B68102213401B09DBB2181CBD4680BDC0460400044080B500AF5B
:401BC000044B1B68202213405B09DBB2181CBD4680BDC0460400044080B500AF044B1B68042213409B08DBB2181CBD4680BDC0460401044080B500AF044B1B68DBB2012243
:401C00001340DBB2181CBD4680BDC0460400044080B500AF044B1B6880221340DB09DBB2181CBD4680BDC0460400044080B582B000AF021CFB1D1A70034AFB1D1B781370D3
:401C4000BD4602B080BDC04672000F4090B585B000AF78600C23FC1800F048FB031C23707B68022B00D8B0E07B68302B00D9ACE05C4B1B78DBB21A1E7B689A420AD35A4A28
:401C80000F23FB1812781A70584A0E23FB1812781A703FE0564B1B78DBB21A1E7B689A420AD3544A0F23FB1812781A70524A0E23FB1812781A702DE0504B1B78DBB21A1E32
:401CC0007B689A420AD34E4A0F23FB1812781A704C4A0E23FB1812781A701BE04A4B1B78DBB21A1E7B689A420AD3484A0F23FB1812781A70464A0E23FB1812781A7009E029
:401D0000444A0F23FB1812781A70434A0E23FB1812781A707B68DA1E0B23FB183F498A5C1A700B23FB181B782F2B0DD97B682A2B0AD93B4B19221A60052000F0CDFA0D234D
:401D4000FB1819221A7007E0354B1B68DAB20D23FB183F210A401A700B23FA180D23FB1812781B789A4208D22D4B7A68033A2B498A5C1A60052000F0AFFA2A4B7A68264959
:401D80008C4662441278D2B21A60274B0F22BA1812781A60254B0E22BA1812781A60052000F050F80B23FA180D23FB1812781B789A4209D91A4B7A68033A18498A5C1A6034
:401DC000052000F089FA03E002E0002000F030F80C23FB181B78181C00F08CFABD4605B090BDC046C0F1FF0FC1F1FF0FC2F1FF0FC3F1FF0FC4F1FF0FC5F1FF0FC6F1FF0F76
:401E0000C7F1FF0FC8F1FF0FC9F1FF0FCAF1FF0FCBF1FF0FCCF1FF0FCDF1FF0F842400002CFF0B4028FF0B401CFF0B4020FF0B4080B582B000AF021CFB1D1A7001BEBD462B
:401E400002B080BD80B582B000AF021CBB1D1A80BB1D1B88044A12785343181C00F03CFABD4602B080BDC046DC00002080B500AF044B044A1268802109060A431A60BD4621
:401E800080BDC0460000024080B500AF064B1B78002B04D100F00AF8034B01221A7000F055F8BD4680BDC0460401002090B583B000AF234B1B78DAB2FB1D3F218A431A70BD
:401EC0001F4AFB1D1B7809210B43DBB213701D4A1C4B1B78DBB201210B43DBB213701A4A194B1B78DBB201210B43DBB21370FA235B01181C00F03AF8FA235B01181C00F004
:401F000053F8FA231B01181C00F05EF8002000F06BF8BC1D00F0EAF9031C23700A4A0A4B1B78DBB210210B43DBB21370BB1D1B78181C00F0DFF900F029F8BD4603B090BDFF
:401F400073000F4092000F4093000F4080B500AF0549054B1B78DBB2802252421343DBB20B70BD4680BDC04673000F4080B582B000AF021CBB1D1A80034ABB1D1B8813809D
:401F8000BD4602B080BDC04604100F4080B500AF01E000F043F800F037F8031C1A1C10231340F6D1BD4680BD80B582B000AF021CBB1D1A80034ABB1D1B881380BD4602B01F
:401FC00080BDC04684100F4080B582B000AF021CBB1D1A80034ABB1D1B881380BD4602B080BDC04644100F4080B582B000AF021CFB1D1A70034AFB1D1B781370BD4602B019
:4020000080BDC04683000F4080B500AF024B1B78DBB2181CBD4680BD63000F4080B500AF024B1B889BB2181CBD4680BDA4100F4080B500AF104B8022D2041A600E4B0E4A9A
:4020400012681A60002000F04BF80B4B0A4A12681A600A4BFF2292001A60012000F086F8074B31221A60FF2000F048F8FE2000F053F8BD4680BDC04640010540640105402D
:402080006801054090B583B000AFFC1D00F02EF9031C2370084B084A126802210A431A60FB1D1B78181C00F025F90220182100F041F8BD4603B090BD0000054080B500AFC3
:4020C000064B1B78002B04D1FFF7B2FF034B01221A70FFF7D7FFBD4680BDC0460501002080B582B000AF7860034B7A681204120C1A60BD4602B080BD4801054080B582B06F
:4021000000AF7860034B7A681204120C1A60BD4602B080BD5401054080B582B000AF7860034B7A681204120C1A60BD4602B080BD4C01054090B585B000AF786039600F2392
:40214000FC1800F0D3F8031C2370074B3A68796891400A1C1A600F23FB181B78181C00F0C9F8BD4605B090BD0800054080B582B000AF7860024B7A681A60BD4602B080BD00
:402180007801054080B500AF104B8022D2041A600E4B0E4A12681A60002000F04BF80B4B0A4A12681A600A4BFF2292001A60012000F086F8074B31221A60FF2000F048F81B
:4021C000002000F053F8BD4680BDC04600010540240105402801054090B583B000AFFC1D00F084F8031C2370084B084A126801210A431A60FB1D1B78181C00F07BF8012057
:40220000182100F041F8BD4603B090BD0000054080B500AF064B1B78002B04D1FFF7B2FF034B01221A70FFF7D7FFBD4680BDC0460601002080B582B000AF7860034B7A6833
:402240001204120C1A60BD4602B080BD0801054080B582B000AF7860034B7A681204120C1A60BD4602B080BD1401054080B582B000AF7860034B7A681204120C1A60BD4689
:4022800002B080BD0C01054090B585B000AF786039600F23FC1800F029F8031C2370074B3A68796891400A1C1A600F23FB181B78181C00F01FF8BD4605B090BD080005408F
:4022C00080B582B000AF7860024B7A681A60BD4602B080BD380105400230800804D0C0460138FDD1C046C046C0467047EFF3108072B6704780F310887047C046C046C0464E
:402300000E4B70B500251E1C0D4CE41AA410A54204D0AB00F35898470135F8E700F0CAF8084B00251E1C084CE41AA410A54204D0AB00F35898470135F8E770BDC0240000F0
:40234000C0240000C0240000C8240000031C8218934202D019700133FAE7704700000000647382919FADBAC6D2DCE5EDF3F8FCFEFF00000000300F40000400400F400004C4
:4023800001000F403C320F4022330F4003400F4005410F400A430F4002600F40830D4060410549FF4AFF4BFF4DA04F0450185A045B045F01604062C06440654066C068C089
:4023C0006AC06CC06EC086068E0292019B01A60CAD01B004B202B401B608B701BE04C020C105C5D1C720C823C9FFCAFFCBFFCDAFCE0FCF04D018D280D405D804D904DA041A
:40240000DB04DF01E040E2C0E440E540E6C0E8C0EAC0ECC0EEC00004020209021020184419441B102240294030204004482049014A024E024F20520259055A806D106F01C4
:402440007102870189108C40C005C208C404CA08CC04D004D238D60BE24063046420D8C087048C2097049C20E24018101C20541160108801C60CD402D604D802E0011001DF
:4024800011010000030405060708090A0B0C0E0F101112131415161718191B1C1D1E1F2021222325262728292A2B2E2F3031323334350000F8B5C046F8BC08BC9E46704754
:4024C00061130000851A0000F8B5C046F8BC08BC9E46704739130000E8240000D000002018000000300000000000000000366E01C05D0000180000000000E02E000000008B
:40250000000000000000000000000000000000000000000000000000000000000000000000000000000000000000000000000000000000000000000000000000000000009B
:40254000000000000000000000000000000000000000000000000000000000000000000000000000000000000000000000000000000000000000000000000000000000005B
:40258000000000000000000000000000000000000000000000000000000000000000000000000000000000000000000000000000000000000000000000000000000000001B
:4025C00000000000000000000000000000000000000000000000000000000000000000000000000000000000000000000000000000000000000000000000000000000000DB
:407FC000BD1111000021000000001400000000000000010000000000000000000000000000000000000000000000000000000000000000000000000000000000000000006C
:0200000490303A
:02000000F9E81D
:0200000490402A
:20000000FFFFFFFF00000000000000000000000000000000000000000000000000000000E4
:0200000490501A
:0C000000000204C81193110004D40B7B13
:0200000490600A
:0100000001FE
:00000001FF